{
  "contractName": "DegreeVerification",
  "abi": [
    {
      "inputs": [],
      "stateMutability": "nonpayable",
      "type": "constructor"
    },
    {
      "anonymous": false,
      "inputs": [
        {
          "indexed": true,
          "internalType": "address",
          "name": "studentAddress",
          "type": "address"
        },
        {
          "indexed": false,
          "internalType": "string",
          "name": "name",
          "type": "string"
        },
        {
          "indexed": false,
          "internalType": "string",
          "name": "course",
          "type": "string"
        },
        {
          "indexed": false,
          "internalType": "uint256",
          "name": "session",
          "type": "uint256"
        },
        {
          "indexed": false,
          "internalType": "string",
          "name": "message",
          "type": "string"
        },
        {
          "indexed": false,
          "internalType": "bytes32",
          "name": "blockHash",
          "type": "bytes32"
        }
      ],
      "name": "StudentAdded",
      "type": "event"
    },
    {
      "inputs": [],
      "name": "admin",
      "outputs": [
        {
          "internalType": "address",
          "name": "",
          "type": "address"
        }
      ],
      "stateMutability": "view",
      "type": "function",
      "constant": true
    },
    {
      "inputs": [
        {
          "internalType": "uint256",
          "name": "",
          "type": "uint256"
        }
      ],
      "name": "studentAddresses",
      "outputs": [
        {
          "internalType": "address",
          "name": "",
          "type": "address"
        }
      ],
      "stateMutability": "view",
      "type": "function",
      "constant": true
    },
    {
      "inputs": [
        {
          "internalType": "address",
          "name": "",
          "type": "address"
        }
      ],
      "name": "students",
      "outputs": [
        {
          "internalType": "string",
          "name": "name",
          "type": "string"
        },
        {
          "internalType": "string",
          "name": "fatherName",
          "type": "string"
        },
        {
          "internalType": "uint256",
          "name": "cnic",
          "type": "uint256"
        },
        {
          "internalType": "uint256",
          "name": "serialNo",
          "type": "uint256"
        },
        {
          "internalType": "uint256",
          "name": "registrationNo",
          "type": "uint256"
        },
        {
          "internalType": "string",
          "name": "course",
          "type": "string"
        },
        {
          "internalType": "uint256",
          "name": "session",
          "type": "uint256"
        }
      ],
      "stateMutability": "view",
      "type": "function",
      "constant": true
    },
    {
      "inputs": [
        {
          "internalType": "string",
          "name": "_name",
          "type": "string"
        },
        {
          "internalType": "string",
          "name": "_fatherName",
          "type": "string"
        },
        {
          "internalType": "uint256",
          "name": "_cnic",
          "type": "uint256"
        },
        {
          "internalType": "uint256",
          "name": "_serialNo",
          "type": "uint256"
        },
        {
          "internalType": "uint256",
          "name": "_registrationNo",
          "type": "uint256"
        },
        {
          "internalType": "string",
          "name": "_course",
          "type": "string"
        },
        {
          "internalType": "uint256",
          "name": "_session",
          "type": "uint256"
        }
      ],
      "name": "addStudent",
      "outputs": [],
      "stateMutability": "nonpayable",
      "type": "function"
    },
    {
      "inputs": [],
      "name": "getAllStudentAddresses",
      "outputs": [
        {
          "internalType": "address[]",
          "name": "",
          "type": "address[]"
        }
      ],
      "stateMutability": "view",
      "type": "function",
      "constant": true
    }
  ],
  "bytecode": "0x608060405234801561001057600080fd5b50336000806101000a81548173ffffffffffffffffffffffffffffffffffffffff021916908373ffffffffffffffffffffffffffffffffffffffff160217905550611392806100606000396000f3fe608060405234801561001057600080fd5b50600436106100575760003560e01c8063a6c807a91461005c578063b5ab682d14610092578063e438f67d146100c2578063e70cc6eb146100de578063f851a440146100fc575b600080fd5b61007660048036038101906100719190610806565b61011a565b60405161008997969594939291906108dc565b60405180910390f35b6100ac60048036038101906100a7919061098c565b6102f4565b6040516100b991906109c8565b60405180910390f35b6100dc60048036038101906100d79190610b18565b610333565b005b6100e66105f8565b6040516100f39190610ccc565b60405180910390f35b610104610686565b60405161011191906109c8565b60405180910390f35b600160205280600052604060002060009150905080600001805461013d90610d1d565b80601f016020809104026020016040519081016040528092919081815260200182805461016990610d1d565b80156101b65780601f1061018b576101008083540402835291602001916101b6565b820191906000526020600020905b81548152906001019060200180831161019957829003601f168201915b5050505050908060010180546101cb90610d1d565b80601f01602080910402602001604051908101604052809291908181526020018280546101f790610d1d565b80156102445780601f1061021957610100808354040283529160200191610244565b820191906000526020600020905b81548152906001019060200180831161022757829003601f168201915b50505050509080600201549080600301549080600401549080600501805461026b90610d1d565b80601f016020809104026020016040519081016040528092919081815260200182805461029790610d1d565b80156102e45780601f106102b9576101008083540402835291602001916102e4565b820191906000526020600020905b8154815290600101906020018083116102c757829003601f168201915b5050505050908060060154905087565b6002818154811061030457600080fd5b906000526020600020016000915054906101000a900473ffffffffffffffffffffffffffffffffffffffff1681565b60008054906101000a900473ffffffffffffffffffffffffffffffffffffffff1673ffffffffffffffffffffffffffffffffffffffff163373ffffffffffffffffffffffffffffffffffffffff16146103c1576040517f08c379a00000000000000000000000000000000000000000000000000000000081526004016103b890610dc0565b60405180910390fd5b6103cc8585856106aa565b1561040c576040517f08c379a000000000000000000000000000000000000000000000000000000000815260040161040390610e52565b60405180910390fd5b6000334360014361041d9190610ea1565b4060405160200161043093929190610f69565b6040516020818303038152906040528051906020012060001c90506040518060e0016040528089815260200188815260200187815260200186815260200185815260200184815260200183815250600160008373ffffffffffffffffffffffffffffffffffffffff1673ffffffffffffffffffffffffffffffffffffffff16815260200190815260200160002060008201518160000190816104d29190611152565b5060208201518160010190816104e89190611152565b5060408201518160020155606082015181600301556080820151816004015560a082015181600501908161051c9190611152565b5060c082015181600601559050506002819080600181540180825580915050600190039060005260206000200160009091909190916101000a81548173ffffffffffffffffffffffffffffffffffffffff021916908373ffffffffffffffffffffffffffffffffffffffff1602179055508073ffffffffffffffffffffffffffffffffffffffff167f964cc031550a8e1320cea2f28659456e674cac842b904949b88c22cb42a4dfa68985856001436105d59190610ea1565b406040516105e6949392919061127f565b60405180910390a25050505050505050565b6060600280548060200260200160405190810160405280929190818152602001828054801561067c57602002820191906000526020600020905b8160009054906101000a900473ffffffffffffffffffffffffffffffffffffffff1673ffffffffffffffffffffffffffffffffffffffff1681526020019060010190808311610632575b5050505050905090565b60008054906101000a900473ffffffffffffffffffffffffffffffffffffffff1681565b600080600090505b60028054905081101561078757600060016000600284815481106106d9576106d86112e5565b5b9060005260206000200160009054906101000a900473ffffffffffffffffffffffffffffffffffffffff1673ffffffffffffffffffffffffffffffffffffffff1673ffffffffffffffffffffffffffffffffffffffff168152602001908152602001600020905085816002015414806107555750848160030154145b806107635750838160040154145b156107735760019250505061078d565b50808061077f90611314565b9150506106b2565b50600090505b9392505050565b6000604051905090565b600080fd5b600080fd5b600073ffffffffffffffffffffffffffffffffffffffff82169050919050565b60006107d3826107a8565b9050919050565b6107e3816107c8565b81146107ee57600080fd5b50565b600081359050610800816107da565b92915050565b60006020828403121561081c5761081b61079e565b5b600061082a848285016107f1565b91505092915050565b600081519050919050565b600082825260208201905092915050565b60005b8381101561086d578082015181840152602081019050610852565b60008484015250505050565b6000601f19601f8301169050919050565b600061089582610833565b61089f818561083e565b93506108af81856020860161084f565b6108b881610879565b840191505092915050565b6000819050919050565b6108d6816108c3565b82525050565b600060e08201905081810360008301526108f6818a61088a565b9050818103602083015261090a818961088a565b905061091960408301886108cd565b61092660608301876108cd565b61093360808301866108cd565b81810360a0830152610945818561088a565b905061095460c08301846108cd565b98975050505050505050565b610969816108c3565b811461097457600080fd5b50565b60008135905061098681610960565b92915050565b6000602082840312156109a2576109a161079e565b5b60006109b084828501610977565b91505092915050565b6109c2816107c8565b82525050565b60006020820190506109dd60008301846109b9565b92915050565b600080fd5b600080fd5b7f4e487b7100000000000000000000000000000000000000000000000000000000600052604160045260246000fd5b610a2582610879565b810181811067ffffffffffffffff82111715610a4457610a436109ed565b5b80604052505050565b6000610a57610794565b9050610a638282610a1c565b919050565b600067ffffffffffffffff821115610a8357610a826109ed565b5b610a8c82610879565b9050602081019050919050565b82818337600083830152505050565b6000610abb610ab684610a68565b610a4d565b905082815260208101848484011115610ad757610ad66109e8565b5b610ae2848285610a99565b509392505050565b600082601f830112610aff57610afe6109e3565b5b8135610b0f848260208601610aa8565b91505092915050565b600080600080600080600060e0888a031215610b3757610b3661079e565b5b600088013567ffffffffffffffff811115610b5557610b546107a3565b5b610b618a828b01610aea565b975050602088013567ffffffffffffffff811115610b8257610b816107a3565b5b610b8e8a828b01610aea565b9650506040610b9f8a828b01610977565b9550506060610bb08a828b01610977565b9450506080610bc18a828b01610977565b93505060a088013567ffffffffffffffff811115610be257610be16107a3565b5b610bee8a828b01610aea565b92505060c0610bff8a828b01610977565b91505092959891949750929550565b600081519050919050565b600082825260208201905092915050565b6000819050602082019050919050565b610c43816107c8565b82525050565b6000610c558383610c3a565b60208301905092915050565b6000602082019050919050565b6000610c7982610c0e565b610c838185610c19565b9350610c8e83610c2a565b8060005b83811015610cbf578151610ca68882610c49565b9750610cb183610c61565b925050600181019050610c92565b5085935050505092915050565b60006020820190508181036000830152610ce68184610c6e565b905092915050565b7f4e487b7100000000000000000000000000000000000000000000000000000000600052602260045260246000fd5b60006002820490506001821680610d3557607f821691505b602082108103610d4857610d47610cee565b5b50919050565b7f4f6e6c792061646d696e2063616e2063616c6c20746869732066756e6374696f60008201527f6e00000000000000000000000000000000000000000000000000000000000000602082015250565b6000610daa60218361083e565b9150610db582610d4e565b604082019050919050565b60006020820190508181036000830152610dd981610d9d565b9050919050565b7f53747564656e7420776974682074686573652064657461696c7320616c72656160008201527f6479206578697374730000000000000000000000000000000000000000000000602082015250565b6000610e3c60298361083e565b9150610e4782610de0565b604082019050919050565b60006020820190508181036000830152610e6b81610e2f565b9050919050565b7f4e487b7100000000000000000000000000000000000000000000000000000000600052601160045260246000fd5b6000610eac826108c3565b9150610eb7836108c3565b9250828203905081811115610ecf57610ece610e72565b5b92915050565b60008160601b9050919050565b6000610eed82610ed5565b9050919050565b6000610eff82610ee2565b9050919050565b610f17610f12826107c8565b610ef4565b82525050565b6000819050919050565b610f38610f33826108c3565b610f1d565b82525050565b6000819050919050565b6000819050919050565b610f63610f5e82610f3e565b610f48565b82525050565b6000610f758286610f06565b601482019150610f858285610f27565b602082019150610f958284610f52565b602082019150819050949350505050565b60008190508160005260206000209050919050565b60006020601f8301049050919050565b600082821b905092915050565b6000600883026110087fffffffffffffffffffffffffffffffffffffffffffffffffffffffffffffffff82610fcb565b6110128683610fcb565b95508019841693508086168417925050509392505050565b6000819050919050565b600061104f61104a611045846108c3565b61102a565b6108c3565b9050919050565b6000819050919050565b61106983611034565b61107d61107582611056565b848454610fd8565b825550505050565b600090565b611092611085565b61109d818484611060565b505050565b5b818110156110c1576110b660008261108a565b6001810190506110a3565b5050565b601f821115611106576110d781610fa6565b6110e084610fbb565b810160208510156110ef578190505b6111036110fb85610fbb565b8301826110a2565b50505b505050565b600082821c905092915050565b60006111296000198460080261110b565b1980831691505092915050565b60006111428383611118565b9150826002028217905092915050565b61115b82610833565b67ffffffffffffffff811115611174576111736109ed565b5b61117e8254610d1d565b6111898282856110c5565b600060209050601f8311600181146111bc57600084156111aa578287015190505b6111b48582611136565b86555061121c565b601f1984166111ca86610fa6565b60005b828110156111f2578489015182556001820191506020850194506020810190506111cd565b8683101561120f578489015161120b601f891682611118565b8355505b6001600288020188555050505b505050505050565b7f53747564656e742064617461206164646564207375636365737366756c6c7900600082015250565b600061125a601f8361083e565b915061126582611224565b602082019050919050565b61127981610f3e565b82525050565b600060a0820190508181036000830152611299818761088a565b905081810360208301526112ad818661088a565b90506112bc60408301856108cd565b81810360608301526112cd8161124d565b90506112dc6080830184611270565b95945050505050565b7f4e487b7100000000000000000000000000000000000000000000000000000000600052603260045260246000fd5b600061131f826108c3565b91507fffffffffffffffffffffffffffffffffffffffffffffffffffffffffffffffff820361135157611350610e72565b5b60018201905091905056fea264697066735822122065d731bd932d477d7fdd1a4e5307f73040775a820f69a5b0712f42dc30aac79664736f6c63430008130033",
  "immutableReferences": {},
  "source": "\n\n// contract StudentRegistry {\n//     address public admin;\n\n//     struct Student {\n//         string name;\n//         string fatherName;\n//         uint256 cnic; \n//         uint256 serialNo;\n//         uint256 registrationNo;\n//         string course;\n//         uint256 session; \n//     }\n\n//     mapping(address => Student) public students;\n//     address[] public studentAddresses;\n\n//     event StudentAdded(\n//         address indexed studentAddress,\n//         string indexed name,\n//         string indexed course,\n//         uint256 session,\n//         string message,\n//         bytes32 blockHash\n//     );\n\n//     modifier onlyAdmin() {\n//         require(msg.sender == admin, \"Only admin can call this function\");\n//         _;\n//     }\n\n//     constructor() {\n//         admin = msg.sender;\n//     }\n\n//     function addStudent(\n//         string memory _name,\n//         string memory _fatherName,\n//         uint256 _cnic,\n//         uint256 _serialNo,\n//         uint256 _registrationNo,\n//         string memory _course,\n//         uint256 _session\n//     ) external onlyAdmin returns (string memory, bytes32) {\n//         // Check if a student with the same CNIC, serial number, and registration number already exists\n//         require(!isStudentExists(_cnic, _serialNo, _registrationNo), \"Student with these details already exists\");\n\n//         address studentAddress = address(uint160(uint256(keccak256(abi.encodePacked(msg.sender, block.number, blockhash(block.number - 1))))));\n\n//         students[studentAddress] = Student({\n//             name: _name,\n//             fatherName: _fatherName,\n//             cnic: _cnic,\n//             serialNo: _serialNo,\n//             registrationNo: _registrationNo,\n//             course: _course,\n//             session: _session\n//         });\n\n//         studentAddresses.push(studentAddress);\n\n//         string memory successMessage = \"Student data added successfully\";\n//         bytes32 blockHash = blockhash(block.number - 1);\n\n//         emit StudentAdded(studentAddress, _name, _course, _session, successMessage, blockHash);\n\n//         return (successMessage, blockHash);\n//     }\n\n//     function isStudentExists(uint256 _cnic, uint256 _serialNo, uint256 _registrationNo) internal view returns (bool) {\n//         // Iterate through all students to check if a student with the same CNIC, serial number, and registration number exists\n//         for (uint256 i = 0; i < studentAddresses.length; i++) {\n//             Student storage existingStudent = students[studentAddresses[i]];\n//             if (\n//                 existingStudent.cnic == _cnic ||\n//                 existingStudent.serialNo == _serialNo ||\n//                 existingStudent.registrationNo == _registrationNo\n//             ) {\n//                 return true;\n//             }\n//         }\n//         return false;\n//     }\n\n//     function getAllStudentAddresses() external view returns (address[] memory) {\n//         return studentAddresses;\n//     }\n// }\n\n\n\n// contract StudentRegistry {\n//     address public admin;\n\n//     struct Student {\n//         string name;\n//         string fatherName;\n//         uint256 cnic;\n//         uint256 serialNo;\n//         uint256 registrationNo;\n//         string course;\n//         uint256 session;\n//     }\n\n//     mapping(address => Student) public students;\n//     address[] public studentAddresses;\n\n//     event StudentAdded(\n//         address indexed studentAddress,\n//         string indexed name,\n//         string indexed course,\n//         uint256 session,\n//         string message,\n//         bytes32 blockHash\n//     );\n\n//     modifier onlyAdmin() {\n//         require(msg.sender == admin, \"Only admin can call this function\");\n//         _;\n//     }\n\n//     constructor() {\n//         admin = msg.sender;\n//     }\n\n//     function addStudent(\n//         string memory _name,\n//         string memory _fatherName,\n//         uint256 _cnic,\n//         uint256 _serialNo,\n//         uint256 _registrationNo,\n//         string memory _course,\n//         uint256 _session\n//     ) external onlyAdmin returns (string memory, bytes32) {\n//         // Check if a student with the same CNIC, serial number, and registration number already exists\n//         require(!isStudentExists(_cnic, _serialNo, _registrationNo), \"Student with these details already exists\");\n\n//         address studentAddress = address(uint160(uint256(keccak256(abi.encodePacked(msg.sender, block.number, blockhash(block.number - 1))))));\n\n//         students[studentAddress] = Student({\n//             name: _name,\n//             fatherName: _fatherName,\n//             cnic: _cnic,\n//             serialNo: _serialNo,\n//             registrationNo: _registrationNo,\n//             course: _course,\n//             session: _session\n//         });\n\n//         studentAddresses.push(studentAddress);\n\n//         string memory successMessage = \"Student data added successfully\";\n//         bytes32 blockHash = blockhash(block.number - 1);\n\n//         emit StudentAdded(studentAddress, _name, _course, _session, successMessage, blockHash);\n\n//         return (successMessage, blockHash);\n//     }\n\n//     function isStudentExists(uint256 _cnic, uint256 _serialNo, uint256 _registrationNo) internal view returns (bool) {\n//         // Iterate through all students to check if a student with the same CNIC, serial number, and registration number exists\n//         for (uint256 i = 0; i < studentAddresses.length; i++) {\n//             Student storage existingStudent = students[studentAddresses[i]];\n//             if (\n//                 existingStudent.cnic == _cnic ||\n//                 existingStudent.serialNo == _serialNo ||\n//                 existingStudent.registrationNo == _registrationNo\n//             ) {\n//                 return true;\n//             }\n//         }\n//         return false;\n//     }\n\n//     function getAllStudentAddresses() external view returns (address[] memory) {\n//         return studentAddresses;\n//     }\n// }\n\n// SPDX-License-Identifier: MIT\npragma solidity ^0.8.0;\n\ncontract DegreeVerification {\n    address public admin;\n\n    struct Student {\n        string name;\n        string fatherName;\n        uint256 cnic;\n        uint256 serialNo;\n        uint256 registrationNo;\n        string course;\n        uint256 session;\n    }\n\n    mapping(address => Student) public students;\n    address[] public studentAddresses;\n\n    event StudentAdded(\n        address indexed studentAddress,\n        string name,\n        string course,\n        uint256 session,\n        string message,\n        bytes32 blockHash\n    );\n\n    modifier onlyAdmin() {\n        require(msg.sender == admin, \"Only admin can call this function\");\n        _;\n    }\n\n    constructor() {\n        admin = msg.sender;\n    }\n\n    function addStudent(\n        string memory _name,\n        string memory _fatherName,\n        uint256 _cnic,\n        uint256 _serialNo,\n        uint256 _registrationNo,\n        string memory _course,\n        uint256 _session\n    ) external onlyAdmin {\n        // Check if a student with the same CNIC, serial number, and registration number already exists\n        require(!isStudentExists(_cnic, _serialNo, _registrationNo), \"Student with these details already exists\");\n\n        // Generate student address\n        address studentAddress = address(uint160(uint256(keccak256(abi.encodePacked(msg.sender, block.number, blockhash(block.number - 1))))));\n\n        // Assign the details to the mapping\n        students[studentAddress] = Student({\n            name: _name,\n            fatherName: _fatherName,\n            cnic: _cnic,\n            serialNo: _serialNo,\n            registrationNo: _registrationNo,\n            course: _course,\n            session: _session\n        });\n\n        // Store the student address\n        studentAddresses.push(studentAddress);\n\n        // Emit event\n        emit StudentAdded(studentAddress, _name, _course, _session, \"Student data added successfully\", blockhash(block.number - 1));\n    }\n\n    function isStudentExists(uint256 _cnic, uint256 _serialNo, uint256 _registrationNo) internal view returns (bool) {\n        // Iterate through all students to check if a student with the same CNIC, serial number, and registration number exists\n        for (uint256 i = 0; i < studentAddresses.length; i++) {\n            Student storage existingStudent = students[studentAddresses[i]];\n            if (\n                existingStudent.cnic == _cnic ||\n                existingStudent.serialNo == _serialNo ||\n                existingStudent.registrationNo == _registrationNo\n            ) {\n                return true;\n            }\n        }\n        return false;\n    }\n\n    function getAllStudentAddresses() external view returns (address[] memory) {\n        return studentAddresses;\n    }\n}\n\n\n\n",
  "sourcePath": "C:\\Users\\Cr computer\\Desktop\\QUOVES\\FYP\\SmartContarct_FYP\\contracts\\DegreeVerification.sol",
  "compiler": {
    "name": "solc",
    "version": "0.8.19+commit.7dd6d404.Emscripten.clang"
  },
  "schemaVersion": "3.4.16",
  "updatedAt": "2024-01-09T15:07:35.674Z",
  "networkType": "ethereum",
  "devdoc": {
    "kind": "dev",
    "methods": {},
    "version": 1
  },
  "userdoc": {
    "kind": "user",
    "methods": {},
    "version": 1
  }
}