{
  "contractName": "StudentRegistry",
  "abi": [
    {
      "inputs": [],
      "stateMutability": "nonpayable",
      "type": "constructor"
    },
    {
      "anonymous": false,
      "inputs": [
        {
          "indexed": true,
          "internalType": "address",
          "name": "studentAddress",
          "type": "address"
        },
        {
          "indexed": true,
          "internalType": "string",
          "name": "name",
          "type": "string"
        },
        {
          "indexed": true,
          "internalType": "string",
          "name": "course",
          "type": "string"
        },
        {
          "indexed": false,
          "internalType": "uint256",
          "name": "session",
          "type": "uint256"
        },
        {
          "indexed": false,
          "internalType": "string",
          "name": "message",
          "type": "string"
        },
        {
          "indexed": false,
          "internalType": "bytes32",
          "name": "blockHash",
          "type": "bytes32"
        }
      ],
      "name": "StudentAdded",
      "type": "event"
    },
    {
      "inputs": [],
      "name": "admin",
      "outputs": [
        {
          "internalType": "address",
          "name": "",
          "type": "address"
        }
      ],
      "stateMutability": "view",
      "type": "function",
      "constant": true
    },
    {
      "inputs": [
        {
          "internalType": "uint256",
          "name": "",
          "type": "uint256"
        }
      ],
      "name": "studentAddresses",
      "outputs": [
        {
          "internalType": "address",
          "name": "",
          "type": "address"
        }
      ],
      "stateMutability": "view",
      "type": "function",
      "constant": true
    },
    {
      "inputs": [
        {
          "internalType": "address",
          "name": "",
          "type": "address"
        }
      ],
      "name": "students",
      "outputs": [
        {
          "internalType": "string",
          "name": "name",
          "type": "string"
        },
        {
          "internalType": "string",
          "name": "fatherName",
          "type": "string"
        },
        {
          "internalType": "uint256",
          "name": "cnic",
          "type": "uint256"
        },
        {
          "internalType": "uint256",
          "name": "serialNo",
          "type": "uint256"
        },
        {
          "internalType": "uint256",
          "name": "registrationNo",
          "type": "uint256"
        },
        {
          "internalType": "string",
          "name": "course",
          "type": "string"
        },
        {
          "internalType": "uint256",
          "name": "session",
          "type": "uint256"
        }
      ],
      "stateMutability": "view",
      "type": "function",
      "constant": true
    },
    {
      "inputs": [
        {
          "internalType": "string",
          "name": "_name",
          "type": "string"
        },
        {
          "internalType": "string",
          "name": "_fatherName",
          "type": "string"
        },
        {
          "internalType": "uint256",
          "name": "_cnic",
          "type": "uint256"
        },
        {
          "internalType": "uint256",
          "name": "_serialNo",
          "type": "uint256"
        },
        {
          "internalType": "uint256",
          "name": "_registrationNo",
          "type": "uint256"
        },
        {
          "internalType": "string",
          "name": "_course",
          "type": "string"
        },
        {
          "internalType": "uint256",
          "name": "_session",
          "type": "uint256"
        }
      ],
      "name": "addStudent",
      "outputs": [
        {
          "internalType": "string",
          "name": "",
          "type": "string"
        },
        {
          "internalType": "bytes32",
          "name": "",
          "type": "bytes32"
        }
      ],
      "stateMutability": "nonpayable",
      "type": "function"
    },
    {
      "inputs": [],
      "name": "getAllStudentAddresses",
      "outputs": [
        {
          "internalType": "address[]",
          "name": "",
          "type": "address[]"
        }
      ],
      "stateMutability": "view",
      "type": "function",
      "constant": true
    }
  ],
  "bytecode": "0x608060405234801561001057600080fd5b50336000806101000a81548173ffffffffffffffffffffffffffffffffffffffff021916908373ffffffffffffffffffffffffffffffffffffffff16021790555061142f806100606000396000f3fe608060405234801561001057600080fd5b50600436106100575760003560e01c8063a6c807a91461005c578063b5ab682d14610092578063e438f67d146100c2578063e70cc6eb146100f3578063f851a44014610111575b600080fd5b61007660048036038101906100719190610894565b61012f565b604051610089979695949392919061096a565b60405180910390f35b6100ac60048036038101906100a79190610a1a565b610309565b6040516100b99190610a56565b60405180910390f35b6100dc60048036038101906100d79190610ba6565b610348565b6040516100ea929190610cb5565b60405180910390f35b6100fb610686565b6040516101089190610da3565b60405180910390f35b610119610714565b6040516101269190610a56565b60405180910390f35b600160205280600052604060002060009150905080600001805461015290610df4565b80601f016020809104026020016040519081016040528092919081815260200182805461017e90610df4565b80156101cb5780601f106101a0576101008083540402835291602001916101cb565b820191906000526020600020905b8154815290600101906020018083116101ae57829003601f168201915b5050505050908060010180546101e090610df4565b80601f016020809104026020016040519081016040528092919081815260200182805461020c90610df4565b80156102595780601f1061022e57610100808354040283529160200191610259565b820191906000526020600020905b81548152906001019060200180831161023c57829003601f168201915b50505050509080600201549080600301549080600401549080600501805461028090610df4565b80601f01602080910402602001604051908101604052809291908181526020018280546102ac90610df4565b80156102f95780601f106102ce576101008083540402835291602001916102f9565b820191906000526020600020905b8154815290600101906020018083116102dc57829003601f168201915b5050505050908060060154905087565b6002818154811061031957600080fd5b906000526020600020016000915054906101000a900473ffffffffffffffffffffffffffffffffffffffff1681565b606060008060009054906101000a900473ffffffffffffffffffffffffffffffffffffffff1673ffffffffffffffffffffffffffffffffffffffff163373ffffffffffffffffffffffffffffffffffffffff16146103db576040517f08c379a00000000000000000000000000000000000000000000000000000000081526004016103d290610e97565b60405180910390fd5b6103e6878787610738565b15610426576040517f08c379a000000000000000000000000000000000000000000000000000000000815260040161041d90610f29565b60405180910390fd5b600033436001436104379190610f78565b4060405160200161044a93929190611036565b6040516020818303038152906040528051906020012060001c90506040518060e001604052808b81526020018a815260200189815260200188815260200187815260200186815260200185815250600160008373ffffffffffffffffffffffffffffffffffffffff1673ffffffffffffffffffffffffffffffffffffffff16815260200190815260200160002060008201518160000190816104ec919061121f565b506020820151816001019081610502919061121f565b5060408201518160020155606082015181600301556080820151816004015560a0820151816005019081610536919061121f565b5060c082015181600601559050506002819080600181540180825580915050600190039060005260206000200160009091909190916101000a81548173ffffffffffffffffffffffffffffffffffffffff021916908373ffffffffffffffffffffffffffffffffffffffff16021790555060006040518060400160405280601f81526020017f53747564656e742064617461206164646564207375636365737366756c6c7900815250905060006001436105f09190610f78565b40905086604051610601919061132d565b60405180910390208c604051610617919061132d565b60405180910390208473ffffffffffffffffffffffffffffffffffffffff167f964cc031550a8e1320cea2f28659456e674cac842b904949b88c22cb42a4dfa689868660405161066993929190611344565b60405180910390a481819450945050505097509795505050505050565b6060600280548060200260200160405190810160405280929190818152602001828054801561070a57602002820191906000526020600020905b8160009054906101000a900473ffffffffffffffffffffffffffffffffffffffff1673ffffffffffffffffffffffffffffffffffffffff16815260200190600101908083116106c0575b5050505050905090565b60008054906101000a900473ffffffffffffffffffffffffffffffffffffffff1681565b600080600090505b600280549050811015610815576000600160006002848154811061076757610766611382565b5b9060005260206000200160009054906101000a900473ffffffffffffffffffffffffffffffffffffffff1673ffffffffffffffffffffffffffffffffffffffff1673ffffffffffffffffffffffffffffffffffffffff168152602001908152602001600020905085816002015414806107e35750848160030154145b806107f15750838160040154145b156108015760019250505061081b565b50808061080d906113b1565b915050610740565b50600090505b9392505050565b6000604051905090565b600080fd5b600080fd5b600073ffffffffffffffffffffffffffffffffffffffff82169050919050565b600061086182610836565b9050919050565b61087181610856565b811461087c57600080fd5b50565b60008135905061088e81610868565b92915050565b6000602082840312156108aa576108a961082c565b5b60006108b88482850161087f565b91505092915050565b600081519050919050565b600082825260208201905092915050565b60005b838110156108fb5780820151818401526020810190506108e0565b60008484015250505050565b6000601f19601f8301169050919050565b6000610923826108c1565b61092d81856108cc565b935061093d8185602086016108dd565b61094681610907565b840191505092915050565b6000819050919050565b61096481610951565b82525050565b600060e0820190508181036000830152610984818a610918565b905081810360208301526109988189610918565b90506109a7604083018861095b565b6109b4606083018761095b565b6109c1608083018661095b565b81810360a08301526109d38185610918565b90506109e260c083018461095b565b98975050505050505050565b6109f781610951565b8114610a0257600080fd5b50565b600081359050610a14816109ee565b92915050565b600060208284031215610a3057610a2f61082c565b5b6000610a3e84828501610a05565b91505092915050565b610a5081610856565b82525050565b6000602082019050610a6b6000830184610a47565b92915050565b600080fd5b600080fd5b7f4e487b7100000000000000000000000000000000000000000000000000000000600052604160045260246000fd5b610ab382610907565b810181811067ffffffffffffffff82111715610ad257610ad1610a7b565b5b80604052505050565b6000610ae5610822565b9050610af18282610aaa565b919050565b600067ffffffffffffffff821115610b1157610b10610a7b565b5b610b1a82610907565b9050602081019050919050565b82818337600083830152505050565b6000610b49610b4484610af6565b610adb565b905082815260208101848484011115610b6557610b64610a76565b5b610b70848285610b27565b509392505050565b600082601f830112610b8d57610b8c610a71565b5b8135610b9d848260208601610b36565b91505092915050565b600080600080600080600060e0888a031215610bc557610bc461082c565b5b600088013567ffffffffffffffff811115610be357610be2610831565b5b610bef8a828b01610b78565b975050602088013567ffffffffffffffff811115610c1057610c0f610831565b5b610c1c8a828b01610b78565b9650506040610c2d8a828b01610a05565b9550506060610c3e8a828b01610a05565b9450506080610c4f8a828b01610a05565b93505060a088013567ffffffffffffffff811115610c7057610c6f610831565b5b610c7c8a828b01610b78565b92505060c0610c8d8a828b01610a05565b91505092959891949750929550565b6000819050919050565b610caf81610c9c565b82525050565b60006040820190508181036000830152610ccf8185610918565b9050610cde6020830184610ca6565b9392505050565b600081519050919050565b600082825260208201905092915050565b6000819050602082019050919050565b610d1a81610856565b82525050565b6000610d2c8383610d11565b60208301905092915050565b6000602082019050919050565b6000610d5082610ce5565b610d5a8185610cf0565b9350610d6583610d01565b8060005b83811015610d96578151610d7d8882610d20565b9750610d8883610d38565b925050600181019050610d69565b5085935050505092915050565b60006020820190508181036000830152610dbd8184610d45565b905092915050565b7f4e487b7100000000000000000000000000000000000000000000000000000000600052602260045260246000fd5b60006002820490506001821680610e0c57607f821691505b602082108103610e1f57610e1e610dc5565b5b50919050565b7f4f6e6c792061646d696e2063616e2063616c6c20746869732066756e6374696f60008201527f6e00000000000000000000000000000000000000000000000000000000000000602082015250565b6000610e816021836108cc565b9150610e8c82610e25565b604082019050919050565b60006020820190508181036000830152610eb081610e74565b9050919050565b7f53747564656e7420776974682074686573652064657461696c7320616c72656160008201527f6479206578697374730000000000000000000000000000000000000000000000602082015250565b6000610f136029836108cc565b9150610f1e82610eb7565b604082019050919050565b60006020820190508181036000830152610f4281610f06565b9050919050565b7f4e487b7100000000000000000000000000000000000000000000000000000000600052601160045260246000fd5b6000610f8382610951565b9150610f8e83610951565b9250828203905081811115610fa657610fa5610f49565b5b92915050565b60008160601b9050919050565b6000610fc482610fac565b9050919050565b6000610fd682610fb9565b9050919050565b610fee610fe982610856565b610fcb565b82525050565b6000819050919050565b61100f61100a82610951565b610ff4565b82525050565b6000819050919050565b61103061102b82610c9c565b611015565b82525050565b60006110428286610fdd565b6014820191506110528285610ffe565b602082019150611062828461101f565b602082019150819050949350505050565b60008190508160005260206000209050919050565b60006020601f8301049050919050565b600082821b905092915050565b6000600883026110d57fffffffffffffffffffffffffffffffffffffffffffffffffffffffffffffffff82611098565b6110df8683611098565b95508019841693508086168417925050509392505050565b6000819050919050565b600061111c61111761111284610951565b6110f7565b610951565b9050919050565b6000819050919050565b61113683611101565b61114a61114282611123565b8484546110a5565b825550505050565b600090565b61115f611152565b61116a81848461112d565b505050565b5b8181101561118e57611183600082611157565b600181019050611170565b5050565b601f8211156111d3576111a481611073565b6111ad84611088565b810160208510156111bc578190505b6111d06111c885611088565b83018261116f565b50505b505050565b600082821c905092915050565b60006111f6600019846008026111d8565b1980831691505092915050565b600061120f83836111e5565b9150826002028217905092915050565b611228826108c1565b67ffffffffffffffff81111561124157611240610a7b565b5b61124b8254610df4565b611256828285611192565b600060209050601f8311600181146112895760008415611277578287015190505b6112818582611203565b8655506112e9565b601f19841661129786611073565b60005b828110156112bf5784890151825560018201915060208501945060208101905061129a565b868310156112dc57848901516112d8601f8916826111e5565b8355505b6001600288020188555050505b505050505050565b600081905092915050565b6000611307826108c1565b61131181856112f1565b93506113218185602086016108dd565b80840191505092915050565b600061133982846112fc565b915081905092915050565b6000606082019050611359600083018661095b565b818103602083015261136b8185610918565b905061137a6040830184610ca6565b949350505050565b7f4e487b7100000000000000000000000000000000000000000000000000000000600052603260045260246000fd5b60006113bc82610951565b91507fffffffffffffffffffffffffffffffffffffffffffffffffffffffffffffffff82036113ee576113ed610f49565b5b60018201905091905056fea2646970667358221220aa254ecd19b9b3725259ebf7bb19663a4c5904e974959fc072e15d927c7662ff64736f6c63430008130033",
  "immutableReferences": {},
  "source": "// SPDX-License-Identifier: MIT\npragma solidity ^0.8.0;\n\ncontract StudentRegistry {\n    address public admin;\n\n    struct Student {\n        string name;\n        string fatherName;\n        uint256 cnic; \n        uint256 serialNo;\n        uint256 registrationNo;\n        string course;\n        uint256 session; \n    }\n\n    mapping(address => Student) public students;\n    address[] public studentAddresses;\n\n    event StudentAdded(\n        address indexed studentAddress,\n        string indexed name,\n        string indexed course,\n        uint256 session,\n        string message,\n        bytes32 blockHash\n    );\n\n    modifier onlyAdmin() {\n        require(msg.sender == admin, \"Only admin can call this function\");\n        _;\n    }\n\n    constructor() {\n        admin = msg.sender;\n    }\n\n    function addStudent(\n        string memory _name,\n        string memory _fatherName,\n        uint256 _cnic,\n        uint256 _serialNo,\n        uint256 _registrationNo,\n        string memory _course,\n        uint256 _session\n    ) external onlyAdmin returns (string memory, bytes32) {\n        // Check if a student with the same CNIC, serial number, and registration number already exists\n        require(!isStudentExists(_cnic, _serialNo, _registrationNo), \"Student with these details already exists\");\n\n        address studentAddress = address(uint160(uint256(keccak256(abi.encodePacked(msg.sender, block.number, blockhash(block.number - 1))))));\n\n        students[studentAddress] = Student({\n            name: _name,\n            fatherName: _fatherName,\n            cnic: _cnic,\n            serialNo: _serialNo,\n            registrationNo: _registrationNo,\n            course: _course,\n            session: _session\n        });\n\n        studentAddresses.push(studentAddress);\n\n        string memory successMessage = \"Student data added successfully\";\n        bytes32 blockHash = blockhash(block.number - 1);\n\n        emit StudentAdded(studentAddress, _name, _course, _session, successMessage, blockHash);\n\n        return (successMessage, blockHash);\n    }\n\n    function isStudentExists(uint256 _cnic, uint256 _serialNo, uint256 _registrationNo) internal view returns (bool) {\n        // Iterate through all students to check if a student with the same CNIC, serial number, and registration number exists\n        for (uint256 i = 0; i < studentAddresses.length; i++) {\n            Student storage existingStudent = students[studentAddresses[i]];\n            if (\n                existingStudent.cnic == _cnic ||\n                existingStudent.serialNo == _serialNo ||\n                existingStudent.registrationNo == _registrationNo\n            ) {\n                return true;\n            }\n        }\n        return false;\n    }\n\n    function getAllStudentAddresses() external view returns (address[] memory) {\n        return studentAddresses;\n    }\n}\n",
  "sourcePath": "C:\\Users\\Cr computer\\Desktop\\QUOVES\\FYP\\SmartContarct_FYP\\contracts\\DegreeVerification.sol",
  "compiler": {
    "name": "solc",
    "version": "0.8.19+commit.7dd6d404.Emscripten.clang"
  },
  "schemaVersion": "3.4.16",
  "updatedAt": "2024-01-05T14:11:10.705Z",
  "networkType": "ethereum",
  "devdoc": {
    "kind": "dev",
    "methods": {},
    "version": 1
  },
  "userdoc": {
    "kind": "user",
    "methods": {},
    "version": 1
  }
}